:020000040800F2
:10000000380700208901000823100008AF0F0008FE
:10001000211000088F02000875130008000000007E
:100020000000000000000000000000002710000891
:1000300091020008000000002510000829100008A7
:10004000A3010008A3010008A3010008A301000800
:10005000A3010008A3010008A3010008A3010008F0
:10006000A3010008A3010008A3010008A3010008E0
:10007000A3010008A3010008A3010008A3010008D0
:10008000A3010008A3010008A3010008A3010008C0
:10009000A3010008A3010008A3010008A3010008B0
:1000A000A3010008A3010008A3010008A3010008A0
:1000B000A3010008A3010008A3010008A301000890
:1000C000A3010008A3010008A3010008A301000880
:1000D000A3010008A3010008A3010008A301000870
:1000E000A3010008A3010008A301000800F002F822
:1000F00000F03AF80AA090E8000C82448344AAF188
:100100000107DA4501D100F02FF8AFF2090EBAE885
:100110000F0013F0010F18BFFB1A43F0010318473B
:100120007019000090190000103A24BF78C878C1F7
:10013000FAD8520724BF30C830C144BF04680C60ED
:10014000704700000023002400250026103A28BF35
:1001500078C1FBD8520728BF30C148BF0B60704739
:100160001FB51FBD10B510BD00F058F81146FFF7C0
:10017000F7FF01F0B5F900F076F803B4FFF7F2FFEE
:1001800003BC00F07DF8000009488047094800479B
:10019000FEE7FEE7FEE7FEE7FEE7FEE7FEE7FEE737
:1001A000FEE7FEE704480549054A064B7047000094
:1001B00089100008ED0000083801002038070020F1
:1001C00038030020380300204FF0000200B513462A
:1001D00094469646203922BFA0E80C50A0E80C5067
:1001E000B1F12001BFF4F7AF090728BFA0E80C5018
:1001F00048BF0CC05DF804EB890028BF40F8042B11
:1002000008BF704748BF20F8022B11F0804F18BF7D
:1002100000F8012B7047704770477047754600F033
:100220002BF8AE4605006946534620F00700854688
:1002300018B020B5FFF7B6FFBDE820404FF000062C
:100240004FF000074FF000084FF0000B21F00701BE
:10025000AC46ACE8C009ACE8C009ACE8C009ACE801
:10026000C0098D46704710B50446AFF300802046A4
:10027000BDE81040FFF781BF00487047D400002060
:1002800001491820ABBEFEE7260002007047FEE7DA
:100290007047000070B5044600F006F90546601C82
:1002A00002D004480078044400F0FEF8401BA0424D
:1002B000FAD370BD040000202DE9F84FDFF8B891A3
:1002C000002409F1040A0AF1040B23460F270BF15D
:1002D000040EC9E00125A5402A40AA427DD1674EFF
:1002E000D1F804C0ACEB0608B44532D014DCBCF144
:1002F000030F3AD009DCBCF1000F2AD0BCF1010F8A
:100300001CD0BCF1020F31D11DE0BCF1110F17D090
:10031000BCF1120F2AD119E0B8F5881F19D006DCFC
:10032000B8F5803F15D0B8F5801F1FD111E0B8F5A2
:10033000001F0ED0B8F5041F18D10AE0CB6815E0F5
:10034000CB681B1D12E0CB6808330FE0CB680C3381
:100350000CE08B682BB1012B4FF0080303D04561F3
:1003600004E0042302E0056100E00023FF2A01D835
:10037000064601E000F104064FEA840501D9A5F123
:100380002005D6F8008007FA05FC28EA0C0803FAD5
:1003900005F548EA0508C6F800804D68ED0062D50D
:1003A000374DAE6946F00106AE61AD6924F0030633
:1003B00005F001050095334D06EB050CDCF80850FF
:1003C000A607360F07FA06F825EA0805DFF8B88011
:1003D000404503D14FF0000817E044E0DFF8AC805F
:1003E000404502D14FF001080FE0DFF8A4804045FE
:1003F00002D14FF0020808E0DFF89880404502D1B2
:100400004FF0030801E04FF0040808FA06F848EA44
:100410000508CCF808804D68D9F80060ED034D461A
:1004200001D5164300E096432E604D68DAF800606F
:10043000AD03554601D5164300E096432E604D6846
:10044000DBF80060ED025D4601D5164300E09643FF
:100450002E604D68DEF80060AD02754601D516438A
:1004600000E096432E60641C0D682A46E5407FF448
:1004700031AFBDE8F88F000000040140000011100A
:10048000001002400000014000080140000C014043
:100490000010014000140140C26821EA02030A4032
:1004A00043EA0241016170470148806870470000DB
:1004B000040000200248816802781144816070477E
:1004C00004000020074810B5016841F010010160E8
:1004D000032000F05FF80F2000F006F800F024F889
:1004E000002010BD0020024070B50D4D04464FF4B1
:1004F0007A712878B1FBF0F00A490968B1FBF0F095
:1005000000F0D6FA48B9102C07D200222146501E1E
:1005100000F020F800206C6070BD012070BD00006C
:100520000400002010000020094808B5816941F04E
:1005300001018161816901F001010091C16941F00E
:100540008051C161C06900F08050009008BD00007A
:1005500000100240F0B40E4B1B680C46C3F302239C
:10056000C3F10705042D00D90425191D072901D25F
:10057000002300E0DB1E012606FA05F1491E21409A
:1005800099409E40761E16403143F0BC00F0F3BE09
:100590000CED00E0064900F0070208684FF6FF0383
:1005A000184040EA0220034A1043086070470000E8
:1005B0000CED00E00000FA052DE9F0470F460500BC
:1005C00061D0434E306800F00700B84209D230686D
:1005D00020F0070038433060306800F00700B84270
:1005E00051D128683B4C810712D5400703D560687C
:1005F00040F4E06060602878000703D5606840F44C
:10060000605060606068A96820F0F0000843606096
:100610002878C00728D06868012810D021680228EF
:1006200010D0890700292EDA616821F00301014307
:100630006160FFF739FF804641F288390DE021689B
:100640008903EFE78901EDE7FFF72EFFA0EB080133
:10065000494502D90320BDE8F0876068696800F069
:100660000C00B0EB810FEFD1306800F00700B8420A
:100670000BD9306820F0070038433060306800F054
:100680000700B84201D00120E5E72878400705D5EA
:100690006068E96820F4E06008436060287800073B
:1006A00006D56068296920F4605040EAC1006060A6
:1006B00000F038F86168084AC1F30311515CC84082
:1006C0000649086006480068FFF70EFF0020C2E7F1
:1006D0000020024000100240781A0008100000209C
:1006E000080000200448054900684968044AC1F32D
:1006F0000221515CC84070471000002000100240E9
:10070000881A00080448054900684968044AC1F38A
:10071000C221515CC8407047100000200010024008
:10072000881A000812A185B00FC98DE80F0014A027
:10073000144A006804905168134801F00C03042B1C
:1007400010D0082B0ED1C1F38343C9031DF8030059
:100750000AD5516804AAC1F34041515C0A4A50438A
:10076000B0FBF1F005B0704708494843FAE70000D4
:1007700002030405060708090A0B0C0D0E0F1010E2
:10078000010200000010024000127A0000093D0042
:100790002DE9F84F040070D02078C04DC00749D033
:1007A0006868C0F38100012807D06868C0F3810041
:1007B000022809D16868C00306D52868800339D5A6
:1007C00060680028E7D035E06068B0F5803F0BD066
:1007D00010B1B0F5A02F11D0286820F48030286027
:1007E000286820F4802002E0286840F480302860E7
:1007F000606890B1FFF758FE06460AE0286840F4AA
:1008000080202860F0E700BFFFF74EFE801B6428C1
:1008100073D828688003F7D50CE0FFF745FE06463D
:1008200005E000BFFFF740FE801B6428F0D8286871
:100830008003F7D420789A4E80074FF001094FF0DB
:10084000000839D5686810F00C0F07D06868C0F34D
:100850008100022809D16868C00306D4286880078F
:1008600014D52069012808D110E02069B0B1C6F87C
:100870000090FFF719FE074605E00AE1FFF714FEB6
:10088000C01B0228C4D828688007F7D5286861698A
:1008900020F0F80040EAC10028600DE0C6F80080B2
:1008A000FFF702FE074604E0FFF7FEFDC01B02282B
:1008B00023D828688007F7D4207800072CD57948FA
:1008C000A169D9B1C0F80090FFF7EEFD074604E03A
:1008D000FFF7EAFDC01B02280FD8686A8007F7D52A
:1008E00071484FF4FA510068B0FBF1F0009000BF7E
:1008F0000098411E0091FAD20EE080E0C0F800801E
:10090000FFF7D2FD074604E0FFF7CEFDC01B02282B
:1009100075D8686A8007F7D42078400760D5E86901
:100920000027C00008D4E86940F08050E861E86919
:10093000012700F0805000905C480168C90513D47D
:100940000168834641F480710160FFF7ADFD824686
:1009500006E000BFFFF7A8FDA0EB0A0064284ED810
:10096000DBF80000C005F5D5E06801280AD008B121
:10097000052813D0286A20F001002862286A20F098
:10098000040002E0286A40F001002862E06841F2B9
:10099000883B98B1FFF788FD82460BE0286A40F05B
:1009A00004002862EEE700BFFFF77EFDA0EB0A011E
:1009B00059455AD8286A8007F6D50CE0FFF774FD30
:1009C000824605E0FFF770FDA0EB0A0159454CD8BF
:1009D000286A8007F6D41FB1E86920F08050E861EA
:1009E000E06988B36968C1F38101022944D0022813
:1009F000C6F8608004D0FFF757FD044638E034E0C5
:100A0000FFF752FD074604E0FFF74EFDC01B02282A
:100A10002BD828688001F7D4206AB0F5803F05D133
:100A20006868A16820F4003008436860D4E90801D0
:100A30000843696821F4741108436860C6F860903F
:100A4000FFF732FD044606E025E000BFFFF72CFD6E
:100A5000001B022809D828688001F7D51BE000BFD9
:100A6000FFF722FD001B022802D90320BDE8F88F02
:100A700028688001F4D40EE00128F7D06868226A63
:100A800000F48031914204D1616A00F47010884210
:100A900001D00120EAE70020E8E700000010024052
:100AA00000004242800442421000002000700040DA
:100AB00010B5401EB0F1807F01D3012010BD4FF072
:100AC000E02460610F21601700F055FC0020A06158
:100AD00007202061002010BD70B590F83C20012A4D
:100AE00026D0012480F83C40022280F83D20036893
:100AF0005A689D6822F070060A6832435A600D4BAE
:100B000002689A4208D0B2F1804F05D00A4B9A424F
:100B100002D00A4B9A4204D1496825F08003194358
:100B2000916080F83D40002180F83C10084670BD7F
:100B3000022070BD002C014000040040000800406D
:100B400000B585B0002100910191029103910068E8
:100B5000B0F1804F11D10A48816941F004018161EF
:100B60008069694600F00400049001200090022092
:100B7000019003900348FFF79FFB05B000BD000004
:100B8000001002400008014070B5044690F83C0097
:100B90000D4601280AD0012084F83C0042B1042A05
:100BA00018D0082A2AD00C2A4DD139E0022070BD75
:100BB000206800F0AFFA2068816941F00801816186
:100BC0002068816921F004018161206881692A69B6
:100BD000114311E0206800F0C5FA2068816941F4F2
:100BE000006181612068816921F4806181612068F0
:100BF00081692A6941EA0221816124E0206800F0CC
:100C0000DDFA2068C16941F00801C1612068C1694D
:100C100021F00401C1612068C1692A69114311E012
:100C2000206800F0F7FA2068C16941F40061C161F1
:100C30002068C16921F48061C1612068C1692A69A5
:100C400041EA0221C161002084F83C0070BD10B56A
:100C5000040003D094F83D0010B107E0012010BD5E
:100C6000002084F83C00204600F01EF8022084F8A2
:100C70003D00211D206800F009FA012084F846009B
:100C800084F83E0084F83F0084F8400084F8410076
:100C900084F8420084F8430084F8440084F8450056
:100CA00084F83D00002010BD08B50068B0F1804F09
:100CB00008D10548C16941F00101C161C06900F076
:100CC0000100009008BD00000010024010B504466D
:100CD000022249B104290ED0082913D094F841000A
:100CE000012816D0012010BD94F83E000128F9D14A
:100CF00084F83E200FE094F83F000128F2D184F8F8
:100D00003F2008E094F840000128EBD184F840200F
:100D100001E084F841200122206800F0EDF90F493C
:100D20002068884203D1426C42F400424264206849
:100D3000884208D0B0F1804F05D00949884202D0DE
:100D40000849884204D1816801F00701062903D0CF
:100D5000016841F001010160002010BD002C01403C
:100D6000000400400008004070B5040004D094F86E
:100D70003D00002510B106E0012070BD84F83C5014
:100D8000204600F023F8242084F83D002068C16844
:100D900021F40051C160204600F05EFA206801692C
:100DA00021F4904101612068416921F02A014161EB
:100DB0002068C16841F40051C1602564202084F896
:100DC0003D0084F83E00002070BD000030B585B0C5
:100DD000002400940194029403940068144988420A
:100DE00024D11448816941F480418161816901F411
:100DF00080410491816941F00401816180690E4D57
:100E000000F0040004904FF4007000900220019064
:100E10000320039069462846FFF74EFA2815CDE9CE
:100E20000004694628460294FFF746FA05B030BD33
:100E30000038014000100240000801402DE9F84F41
:100E4000044690F83E009A4616460D46202853D197
:100E5000FDB1F6B194F83C0001284DD0012084F892
:100E60003C0000272764222084F83E002763FFF718
:100E70001BFBA6858146E685A0684FF48058404557
:100E800001D1206940B12E465FF0000584F83C7026
:100E900027E00120BDE8F88F0026F7E74B46002247
:100EA00020212046CDF800A000F032FA08B103203E
:100EB000F0E726B1A06840451BD038B108E02068B3
:100EC0004068C0F3080025F8020B07E0206980B1F4
:100ED0002068406800F07F0006F8010BE08D401E9E
:100EE000E085E08D0028D9D1202084F83E00002044
:100EF000D0E720684068EFE70220CBE72DE9F84310
:100F0000044690F83D001F4616460D4620284CD159
:100F1000C5B1BEB194F83C00012846D0012084F848
:100F20003C004FF00008C4F84080212084F83D00C8
:100F3000FFF7BAFAA6848146E684A068B0F5805F20
:100F400003D004E00120BDE8F883206928B12E46D3
:100F50005FF0000584F83C800EE00026FAE780216F
:100F6000204600F0D5F9A0B9AEB116F8010B216802
:100F70004860E08C401EE084E08C4B464FF000025D
:100F800000970028EBD14FF04001204600F0C0F957
:100F900030B10320D7E735F8020BC0F30800E6E7CD
:100FA000202084F83D000020CDE70220CBE7FEE7BB
:100FB00010B58AB0002407941C2168460894FFF7F6
:100FC00003F916484FF08041016041F6FF01C0E986
:100FD000011440F21971C0E903148461FFF737FE70
:100FE00008B172B6FEE7079407A90C480894FFF70A
:100FF00073FD08B172B6FEE76020CDE900040294EB
:101000000022694605480494FFF7BEFD08B172B698
:10101000FEE70248FFF794FD0AB010BD140000205F
:10102000FEE7FEE770477047FFF744BA30B58FB070
:1010300028216846FFF7C8F814210AA8FFF7C4F86A
:1010400002250120049000951020059000244FF403
:101050006010CDE9084007956846FFF799FB08B195
:1010600072B6FEE70F20CDE90A054FF48060CDE9A6
:101070000C4002210AA80E94FFF79EFA002801D026
:1010800072B6FEE70FB030BD70470000F0B50268E1
:10109000164B174C174D4FF08047984205D0B84279
:1010A00003D0A04201D0A84203D122F070064A68C2
:1010B0003243984205D0B84203D0A04201D0A842A2
:1010C00003D122F44074CA6822434C6922F08002A2
:1010D000224302608A68C2620A688262984201D131
:1010E0000969016301214161F0BD0000002C01404C
:1010F000000400400008004010B501F01F0301216A
:10110000046A99408C430462016A9A401143016267
:1011100010BD000030B5026A22F001020262026ACC
:101120004368846924F073050C682C4322F002059F
:101130008A682A430A4DA8420BD122F00805CA68E2
:1011400023F440732A434D6922F004021D438B6946
:101150002B434360846149684163026230BD0000F3
:10116000002C014030B5026A22F010020262026ACD
:10117000436884690D6824F4E64444EA05248D68D4
:1011800022F0200242EA05120B4DA8420ED1CD6892
:1011900022F0800242EA05124D6923F4406343EADB
:1011A00085038D6922F0400243EA85034360846130
:1011B00049688163026230BD002C014030B5026A8B
:1011C00022F480720262036A4268C46923F40073E5
:1011D00024F073050C682C438D6843EA05230C4DFD
:1011E000A8420ED1CD6823F4006343EA05234D697C
:1011F00022F4405242EA05128D6923F4806342EAE8
:1012000005124260C4614968C163036230BD0000D9
:10121000002C014030B5026A22F480520262046A56
:101220004268C3690D6823F4E64343EA05238D68E9
:1012300024F4005444EA0534064DA84204D14D6913
:1012400022F4804242EA85124260C3614968016427
:10125000046230BD002C014070B50446006801698D
:10126000E26821F44051114301612169A0680843FB
:10127000616908432168CA6841F20C639A430243DA
:10128000CA6020684169A26921F44071114341613B
:101290001E492068884202D1FFF734FA01E0FFF7C7
:1012A00021FA00EBC00101EB0012606864218000AC
:1012B000B2FBF0F3B3FBF1F36FF018067343B2FB2C
:1012C000F0F5B2FBF0F605EB8305322303EB0515D1
:1012D000B5FBF1F5B6FBF1F605F0F00505EB0615EB
:1012E000B2FBF0F6B2FBF0F0B0FBF1F06FF01802D9
:1012F000504306EB800003EB0010B0FBF1F02168D7
:1013000000F00F002844886070BD000000380140E4
:101310002DE9F041984617460E460446069D1DE00D
:10132000681C1BD02DB1FFF7BFF8A0EB0800A84246
:1013300014D92068C16821F4D071C1602068416966
:1013400021F001014161202084F83D0084F83E0035
:10135000002084F83C000320BDE8F081206800688C
:1013600036EA000004D00020B842D9D00020F3E7CC
:101370000120F9E7FEE70907090E002804DB00F168
:10138000E02080F80014704700F00F0000F1E0202A
:1013900080F8141D70470179407981EA51010140BC
:1013A000C80701D0002070470320704770B504467D
:1013B0000025204600F034F86D1C0646EDB20328E7
:1013C00001D01EB127E0142DF3D324E06079A17978
:1013D000400840EAC11000F06BFA6FF0050200F01F
:1013E00005FB00F0D3F8E062B4F8070000F060FA03
:1013F0006FF0010200F0FAFA0022084B00F000F949
:1014000000F0C4F82063207900F0010184F829106D
:10141000800884F82A00304670BD000000408F40EC
:1014200010B5044600684FF47A730522211DFFF7BA
:1014300005FD08B1012010BD2046BDE81040FFF7B2
:10144000AABF0179A5290FD141795A290CD18179F7
:10145000052909D1C17939B9017A29B9417A4029D7
:1014600002D1817A812901D00220704700214218DF
:10147000491C1379C9B282F822300729F7D300201A
:101480007047000008B507A14FF47A73096800910E
:10149000006802226946FFF731FD1420FEF7FAFECC
:1014A00008BD0000A525000038B504460BA04FF488
:1014B0007A75006800902B46022269462068FFF783
:1014C0001DFD2B460722211D2068FFF7B7FC08B140
:1014D000012038BD2046FFF7B4FF38BDA52000002D
:1014E000254C08B504F144000460FEF7EBFFFFF75C
:1014F0009DFD2248816941F004018161806900F00D
:1015000004000090FFF754FD1D4820604FF4E130C7
:1015100060600020A0600C21E060C4E90401A061CB
:10152000E0612046FFF720FC08B172B6FEE740F20A
:101530001A7041074863104800214838FFF7C6FB7E
:101540000D484430FFF79EFF0E4C0B484430FFF728
:10155000ABFF20700028F8D10B4E4FF480550648A1
:101560004430FFF723FF20700028F8D12946304689
:10157000FEF792FFF3E700005C000020001002403D
:101580000038014000000020000C014021F0004222
:10159000A2F16052B2F5801F01F0004328BFD2F1E2
:1015A0007F6C0BD95FEA001C43EAC20242EB507029
:1015B00018BF704728BF20F001007047B2F5801FA8
:1015C000BCBF184670474FEA410C1CF5001F02D201
:1015D000084600F0D4B970B500F07DF9000000892C
:1015E000FFF7F6BF4FF00040A0F580007047000005
:1015F00002494FF0000000F0C7B900BF0000F87FBB
:101600002DE9C04130B4DFF8A0C23CEA111418BF84
:101610003CEA131400F0EC8081EA03051CEA111483
:1016200044EAD57418BF1CEA131500F0C780A4EB78
:1016300005044FF0004545EAC12145EAC32341EACC
:10164000505143EA525304F17F74994204F5003437
:101650004FEAC0204FEAC22208BF904200F09C80AF
:101660004FEA13650FF24016765D4FEA134506FB0D
:1016700005F7C7F1807706FB07F74FEAD737A7FBD7
:1016800003687642C8F58038A7FB06CE38BFA8F1BC
:10169000010807FB08E64FF0000EA6FB028CE6FBF4
:1016A00003CEDCF1000CCEF1004E38BFAEF1010EDE
:1016B000A6FB0C584FF000074FF00005E6FB0E8725
:1016C000A1FB08C6A0FB07CE16EB0E0645F10005F0
:1016D000E1FB076515F1E04E7EBFA4F580345FEABB
:1016E00046066D4116F1800745F100054FEA1727C0
:1016F0004FEA066647EA0567A6F1DE46B6F1805F67
:101700004FEA15251FD9384624F0010C05EBC471AA
:10171000BCF1FE6F01EB0C1102D8F0BCBDE80081FA
:1017200024425CBF01F5801E9EEAC47F02D4F0BC57
:10173000BDE80081244238D4F0BCA1F1C041BDE82D
:10174000004100F016B94FEAD22242EA43524FEA72
:10175000D323A7FB02864FEAD02040EA415007FB83
:1017600003661EEA0E0F4FEAD12105FB026658BF41
:10177000A6EB0056B6EB00564FEA520E4EEAC37E79
:1017800018EB0E0E56EB530EBDD518EB02085E415A
:101790007F1C55F10005B6E74FF480154FF00007A8
:1017A0004FF000064FF00008ADE7F0BC4FF000002E
:1017B00001F1C04101F00041BDE8008111EA0C1FB8
:1017C0000CEA131500D00CE013EA0C1F00F0258082
:1017D0004FF00000F0BC81EA030101F00041BDE8D8
:1017E0000081F0BCBDE8004181EA030100F0C1B80E
:1017F000F0BCBDE8004170B500F06DF8097EFC3E1C
:1018000000F007B881EA03014FF0000001F0004149
:10181000704781EA030100F0ACB8F0BCBDE80041BC
:101820004FF0000021497047FFFDFBF9F7F5F4F296
:10183000F0EEEDEBE9E8E6E4E3E1E0DEDDDBDAD86B
:10184000D7D5D4D3D1D0CFCDCCCBCAC8C7C6C5C4C9
:10185000C2C1C0BFBEBDBCBBBAB9B8B7B6B5B4B3E0
:10186000B2B1B0AFAEADACABAAA9A8A8A7A6A5A4CB
:10187000A3A3A2A1A09F9F9E9D9C9C9B9A9999988F
:101880009797969595949393929191908F8F8E8E32
:101890008D8C8C8B8B8A89898888878786858584BF
:1018A00084838382828181800000FF070000F87FAB
:1018B000B0FA80F310FA03F10AD0C3F11D0303F567
:1018C00080634FEA41504FEA035202EBD121704747
:1018D0004FF0000070470EF1020E2EF0030E5EF87E
:1018E000046B364205D4012A43EB030515F5001FAE
:1018F00012D8012841EB010C1CF5001F0CD80ED1A9
:101900004FEAD17C15F5001F0CEB4C0C0CF1020CCE
:1019100008BF4CEBD37C04E04FF0080C01E04FEA29
:10192000D37C0CEB4C0526FA05F606F00706B6F15B
:10193000040C06D20EEB860CBDE870404CF0010C96
:101940006047DFE80CF0090B02024FF000414FF056
:101950000000A1F5002170BD19461046012851EB89
:10196000010418BFD4F5001484BF002001F0004129
:1019700070BD0808A0F500114FEA31017047FF2142
:1019800041EAD050C00570470CF00F03092B08BF87
:10199000082000F059800A2B0BD0082B18BF704785
:1019A00008BF1CF0400F0AD04FF000004FF00001BC
:1019B00070471CF0400F18BF4FF0004070471CF0FC
:1019C000100F08D020F0704300F07F4242EAD301AC
:1019D0004FEA4370704700F0604021F07F4242EAD6
:1019E000000201F07F4040EA727070474FF0FF0C38
:1019F0004CF4E06C1CEA11531CBF9CEA030C9445A8
:101A0000C2BFDA4201EB02517047002B0DD0BCF18E
:101A1000000F0FD0002A01F00041A4BF41F0E041C7
:101A200041F07F614FF00000704701F000414FF03E
:101A30000000704750EA01334FF09B0C18BF4CF088
:101A4000806C7FF4D5AD70471CF4801F11D01CF45E
:101A5000E02F03D06FEACC31490070474FF040507F
:101A6000EFF3008222F0704242EA000282F3008823
:101A700070474FF0000070470000000000000000B9
:101A80000102030406070809000000000102030424
:101A9000B01A00080000002014000000280100080F
:101AA000C41A0008140000202407000044010008A4
:101AB0000000000001000000100000000000000015
:041AC0000024F4000A
:04000005080000ED02
:00000001FF
